{
  "contractName": "dBank",
  "abi": [
    {
      "constant": true,
      "inputs": [
        {
          "name": "",
          "type": "address"
        }
      ],
      "name": "etherBalanceOf",
      "outputs": [
        {
          "name": "",
          "type": "uint256"
        }
      ],
      "payable": false,
      "stateMutability": "view",
      "type": "function",
      "signature": "0x179fc99f"
    },
    {
      "constant": true,
      "inputs": [
        {
          "name": "",
          "type": "address"
        }
      ],
      "name": "isDeposited",
      "outputs": [
        {
          "name": "",
          "type": "bool"
        }
      ],
      "payable": false,
      "stateMutability": "view",
      "type": "function",
      "signature": "0x73732024"
    },
    {
      "constant": true,
      "inputs": [
        {
          "name": "",
          "type": "address"
        }
      ],
      "name": "collateralEther",
      "outputs": [
        {
          "name": "",
          "type": "uint256"
        }
      ],
      "payable": false,
      "stateMutability": "view",
      "type": "function",
      "signature": "0x75a40d2a"
    },
    {
      "constant": true,
      "inputs": [
        {
          "name": "",
          "type": "address"
        }
      ],
      "name": "isBorrowed",
      "outputs": [
        {
          "name": "",
          "type": "bool"
        }
      ],
      "payable": false,
      "stateMutability": "view",
      "type": "function",
      "signature": "0xcdebd932"
    },
    {
      "constant": true,
      "inputs": [
        {
          "name": "",
          "type": "address"
        }
      ],
      "name": "depositStart",
      "outputs": [
        {
          "name": "",
          "type": "uint256"
        }
      ],
      "payable": false,
      "stateMutability": "view",
      "type": "function",
      "signature": "0xff87930a"
    },
    {
      "inputs": [
        {
          "name": "_token",
          "type": "address"
        }
      ],
      "payable": false,
      "stateMutability": "nonpayable",
      "type": "constructor",
      "signature": "constructor"
    },
    {
      "anonymous": false,
      "inputs": [
        {
          "indexed": true,
          "name": "user",
          "type": "address"
        },
        {
          "indexed": false,
          "name": "etherAmount",
          "type": "uint256"
        },
        {
          "indexed": false,
          "name": "timeStart",
          "type": "uint256"
        }
      ],
      "name": "Deposit",
      "type": "event",
      "signature": "0x90890809c654f11d6e72a28fa60149770a0d11ec6c92319d6ceb2bb0a4ea1a15"
    },
    {
      "anonymous": false,
      "inputs": [
        {
          "indexed": true,
          "name": "user",
          "type": "address"
        },
        {
          "indexed": false,
          "name": "etherAmount",
          "type": "uint256"
        },
        {
          "indexed": false,
          "name": "depositTime",
          "type": "uint256"
        },
        {
          "indexed": false,
          "name": "interest",
          "type": "uint256"
        }
      ],
      "name": "Withdraw",
      "type": "event",
      "signature": "0x02f25270a4d87bea75db541cdfe559334a275b4a233520ed6c0a2429667cca94"
    },
    {
      "anonymous": false,
      "inputs": [
        {
          "indexed": true,
          "name": "user",
          "type": "address"
        },
        {
          "indexed": false,
          "name": "collateralEtherAmount",
          "type": "uint256"
        },
        {
          "indexed": false,
          "name": "borrowedTokenAmount",
          "type": "uint256"
        }
      ],
      "name": "Borrow",
      "type": "event",
      "signature": "0xe1979fe4c35e0cef342fef5668e2c8e7a7e9f5d5d1ca8fee0ac6c427fa4153af"
    },
    {
      "anonymous": false,
      "inputs": [
        {
          "indexed": true,
          "name": "user",
          "type": "address"
        },
        {
          "indexed": false,
          "name": "fee",
          "type": "uint256"
        }
      ],
      "name": "PayOff",
      "type": "event",
      "signature": "0xfd9bbd044fa427970e4d882ebbb4a89ce422dc29b23f2777a14a93ecdf42c644"
    },
    {
      "constant": false,
      "inputs": [],
      "name": "deposit",
      "outputs": [],
      "payable": true,
      "stateMutability": "payable",
      "type": "function",
      "signature": "0xd0e30db0"
    },
    {
      "constant": false,
      "inputs": [],
      "name": "withdraw",
      "outputs": [],
      "payable": false,
      "stateMutability": "nonpayable",
      "type": "function",
      "signature": "0x3ccfd60b"
    },
    {
      "constant": false,
      "inputs": [],
      "name": "borrow",
      "outputs": [],
      "payable": true,
      "stateMutability": "payable",
      "type": "function",
      "signature": "0xe68d3569"
    },
    {
      "constant": false,
      "inputs": [],
      "name": "payOff",
      "outputs": [],
      "payable": false,
      "stateMutability": "nonpayable",
      "type": "function",
      "signature": "0x3fac68d5"
    }
  ],
  "bytecode": "0x608060405234801561001057600080fd5b5060405160208061142b8339810180604052602081101561003057600080fd5b8101908080519060200190929190505050806000806101000a81548173ffffffffffffffffffffffffffffffffffffffff021916908373ffffffffffffffffffffffffffffffffffffffff1602179055505061139a806100916000396000f3fe608060405260043610610099576000357c0100000000000000000000000000000000000000000000000000000000900463ffffffff168063179fc99f1461009e5780633ccfd60b146101035780633fac68d51461011a578063737320241461013157806375a40d2a1461019a578063cdebd932146101ff578063d0e30db014610268578063e68d356914610272578063ff87930a1461027c575b600080fd5b3480156100aa57600080fd5b506100ed600480360360208110156100c157600080fd5b81019080803573ffffffffffffffffffffffffffffffffffffffff1690602001909291905050506102e1565b6040518082815260200191505060405180910390f35b34801561010f57600080fd5b506101186102f9565b005b34801561012657600080fd5b5061012f610756565b005b34801561013d57600080fd5b506101806004803603602081101561015457600080fd5b81019080803573ffffffffffffffffffffffffffffffffffffffff169060200190929190505050610bd6565b604051808215151515815260200191505060405180910390f35b3480156101a657600080fd5b506101e9600480360360208110156101bd57600080fd5b81019080803573ffffffffffffffffffffffffffffffffffffffff169060200190929190505050610bf6565b6040518082815260200191505060405180910390f35b34801561020b57600080fd5b5061024e6004803603602081101561022257600080fd5b81019080803573ffffffffffffffffffffffffffffffffffffffff169060200190929190505050610c0e565b604051808215151515815260200191505060405180910390f35b610270610c2e565b005b61027a610f55565b005b34801561028857600080fd5b506102cb6004803603602081101561029f57600080fd5b81019080803573ffffffffffffffffffffffffffffffffffffffff169060200190929190505050611356565b6040518082815260200191505060405180910390f35b60016020528060005260406000206000915090505481565b60011515600460003373ffffffffffffffffffffffffffffffffffffffff1673ffffffffffffffffffffffffffffffffffffffff16815260200190815260200160002060009054906101000a900460ff1615151415156103c1576040517f08c379a000000000000000000000000000000000000000000000000000000000815260040180806020018281038252601a8152602001807f4572726f722c206e6f2070726576696f7573206465706f73697400000000000081525060200191505060405180910390fd5b6000600160003373ffffffffffffffffffffffffffffffffffffffff1673ffffffffffffffffffffffffffffffffffffffff1681526020019081526020016000205490506000600260003373ffffffffffffffffffffffffffffffffffffffff1673ffffffffffffffffffffffffffffffffffffffff16815260200190815260200160002054420390506000662386f26fc10000600160003373ffffffffffffffffffffffffffffffffffffffff1673ffffffffffffffffffffffffffffffffffffffff1681526020019081526020016000205481151561049e57fe5b046301e33731029050600082820290503373ffffffffffffffffffffffffffffffffffffffff166108fc600160003373ffffffffffffffffffffffffffffffffffffffff1673ffffffffffffffffffffffffffffffffffffffff168152602001908152602001600020549081150290604051600060405180830381858888f19350505050158015610533573d6000803e3d6000fd5b506000809054906101000a900473ffffffffffffffffffffffffffffffffffffffff1673ffffffffffffffffffffffffffffffffffffffff166340c10f1933836040518363ffffffff167c0100000000000000000000000000000000000000000000000000000000028152600401808373ffffffffffffffffffffffffffffffffffffffff1673ffffffffffffffffffffffffffffffffffffffff16815260200182815260200192505050600060405180830381600087803b1580156105f857600080fd5b505af115801561060c573d6000803e3d6000fd5b505050506000600260003373ffffffffffffffffffffffffffffffffffffffff1673ffffffffffffffffffffffffffffffffffffffff168152602001908152602001600020819055506000600160003373ffffffffffffffffffffffffffffffffffffffff1673ffffffffffffffffffffffffffffffffffffffff168152602001908152602001600020819055506000600460003373ffffffffffffffffffffffffffffffffffffffff1673ffffffffffffffffffffffffffffffffffffffff16815260200190815260200160002060006101000a81548160ff0219169083151502179055503373ffffffffffffffffffffffffffffffffffffffff167f02f25270a4d87bea75db541cdfe559334a275b4a233520ed6c0a2429667cca9485858460405180848152602001838152602001828152602001935050505060405180910390a250505050565b60011515600560003373ffffffffffffffffffffffffffffffffffffffff1673ffffffffffffffffffffffffffffffffffffffff16815260200190815260200160002060009054906101000a900460ff16151514151561081e576040517f08c379a00000000000000000000000000000000000000000000000000000000081526004018080602001828103825260168152602001807f4572726f722c206c6f616e206e6f74206163746976650000000000000000000081525060200191505060405180910390fd5b6000809054906101000a900473ffffffffffffffffffffffffffffffffffffffff1673ffffffffffffffffffffffffffffffffffffffff166323b872dd33306002600360003373ffffffffffffffffffffffffffffffffffffffff1673ffffffffffffffffffffffffffffffffffffffff168152602001908152602001600020548115156108a857fe5b046040518463ffffffff167c0100000000000000000000000000000000000000000000000000000000028152600401808473ffffffffffffffffffffffffffffffffffffffff1673ffffffffffffffffffffffffffffffffffffffff1681526020018373ffffffffffffffffffffffffffffffffffffffff1673ffffffffffffffffffffffffffffffffffffffff1681526020018281526020019350505050602060405180830381600087803b15801561096157600080fd5b505af1158015610975573d6000803e3d6000fd5b505050506040513d602081101561098b57600080fd5b81019080805190602001909291905050501515610a10576040517f08c379a000000000000000000000000000000000000000000000000000000000815260040180806020018281038252601b8152602001807f4572726f722c2063616e2774207265636569766520746f6b656e73000000000081525060200191505060405180910390fd5b6000600a600360003373ffffffffffffffffffffffffffffffffffffffff1673ffffffffffffffffffffffffffffffffffffffff16815260200190815260200160002054811515610a5d57fe5b0490503373ffffffffffffffffffffffffffffffffffffffff166108fc82600360003373ffffffffffffffffffffffffffffffffffffffff1673ffffffffffffffffffffffffffffffffffffffff16815260200190815260200160002054039081150290604051600060405180830381858888f19350505050158015610ae7573d6000803e3d6000fd5b506000600360003373ffffffffffffffffffffffffffffffffffffffff1673ffffffffffffffffffffffffffffffffffffffff168152602001908152602001600020819055506000600560003373ffffffffffffffffffffffffffffffffffffffff1673ffffffffffffffffffffffffffffffffffffffff16815260200190815260200160002060006101000a81548160ff0219169083151502179055503373ffffffffffffffffffffffffffffffffffffffff167ffd9bbd044fa427970e4d882ebbb4a89ce422dc29b23f2777a14a93ecdf42c644826040518082815260200191505060405180910390a250565b60046020528060005260406000206000915054906101000a900460ff1681565b60036020528060005260406000206000915090505481565b60056020528060005260406000206000915054906101000a900460ff1681565b60001515600460003373ffffffffffffffffffffffffffffffffffffffff1673ffffffffffffffffffffffffffffffffffffffff16815260200190815260200160002060009054906101000a900460ff161515141515610cf6576040517f08c379a000000000000000000000000000000000000000000000000000000000815260040180806020018281038252601d8152602001807f4572726f722c206465706f73697420616c72656164792061637469766500000081525060200191505060405180910390fd5b662386f26fc100003410151515610d9b576040517f08c379a00000000000000000000000000000000000000000000000000000000081526004018080602001828103825260228152602001807f4572726f722c206465706f736974206d757374206265203e3d20302e3031204581526020017f544800000000000000000000000000000000000000000000000000000000000081525060400191505060405180910390fd5b34600160003373ffffffffffffffffffffffffffffffffffffffff1673ffffffffffffffffffffffffffffffffffffffff1681526020019081526020016000205401600160003373ffffffffffffffffffffffffffffffffffffffff1673ffffffffffffffffffffffffffffffffffffffff1681526020019081526020016000208190555042600260003373ffffffffffffffffffffffffffffffffffffffff1673ffffffffffffffffffffffffffffffffffffffff1681526020019081526020016000205401600260003373ffffffffffffffffffffffffffffffffffffffff1673ffffffffffffffffffffffffffffffffffffffff168152602001908152602001600020819055506001600460003373ffffffffffffffffffffffffffffffffffffffff1673ffffffffffffffffffffffffffffffffffffffff16815260200190815260200160002060006101000a81548160ff0219169083151502179055503373ffffffffffffffffffffffffffffffffffffffff167f90890809c654f11d6e72a28fa60149770a0d11ec6c92319d6ceb2bb0a4ea1a153442604051808381526020018281526020019250505060405180910390a2565b662386f26fc100003410151515610ffa576040517f08c379a00000000000000000000000000000000000000000000000000000000081526004018080602001828103825260248152602001807f4572726f722c20636f6c6c61746572616c206d757374206265203e3d20302e3081526020017f314554480000000000000000000000000000000000000000000000000000000081525060400191505060405180910390fd5b60001515600560003373ffffffffffffffffffffffffffffffffffffffff1673ffffffffffffffffffffffffffffffffffffffff16815260200190815260200160002060009054906101000a900460ff1615151415156110c2576040517f08c379a00000000000000000000000000000000000000000000000000000000081526004018080602001828103825260188152602001807f4572726f722c206c6f616e20616c656164792074616b656e000000000000000081525060200191505060405180910390fd5b34600360003373ffffffffffffffffffffffffffffffffffffffff1673ffffffffffffffffffffffffffffffffffffffff1681526020019081526020016000205401600360003373ffffffffffffffffffffffffffffffffffffffff1673ffffffffffffffffffffffffffffffffffffffff1681526020019081526020016000208190555060006002600360003373ffffffffffffffffffffffffffffffffffffffff1673ffffffffffffffffffffffffffffffffffffffff1681526020019081526020016000205481151561119457fe5b0490506000809054906101000a900473ffffffffffffffffffffffffffffffffffffffff1673ffffffffffffffffffffffffffffffffffffffff166340c10f1933836040518363ffffffff167c0100000000000000000000000000000000000000000000000000000000028152600401808373ffffffffffffffffffffffffffffffffffffffff1673ffffffffffffffffffffffffffffffffffffffff16815260200182815260200192505050600060405180830381600087803b15801561125b57600080fd5b505af115801561126f573d6000803e3d6000fd5b50505050600560003373ffffffffffffffffffffffffffffffffffffffff1673ffffffffffffffffffffffffffffffffffffffff16815260200190815260200160002060009054906101000a9050503373ffffffffffffffffffffffffffffffffffffffff167fe1979fe4c35e0cef342fef5668e2c8e7a7e9f5d5d1ca8fee0ac6c427fa4153af600360003373ffffffffffffffffffffffffffffffffffffffff1673ffffffffffffffffffffffffffffffffffffffff1681526020019081526020016000205483604051808381526020018281526020019250505060405180910390a250565b6002602052806000526040600020600091509050548156fea165627a7a72305820079875a5d21ef4f0858de34817c1e7a36d86d618dc8f78318f22a27b823124ce0029",
  "source": "// SPDX-License-Identifier: MIT\r\npragma solidity >=0.5.0 <0.8.0;\r\n\r\nimport \"./Token.sol\";\r\n\r\ncontract dBank {\r\n    //assign Token contract to variable\r\n    Token private token;\r\n\r\n    //add mappings\r\n    mapping(address => uint256) public etherBalanceOf;\r\n    mapping(address => uint256) public depositStart;\r\n    mapping(address => uint256) public collateralEther;\r\n\r\n    mapping(address => bool) public isDeposited;\r\n    mapping(address => bool) public isBorrowed;\r\n\r\n    //add events\r\n    event Deposit(address indexed user, uint256 etherAmount, uint256 timeStart);\r\n    event Withdraw(\r\n        address indexed user,\r\n        uint256 etherAmount,\r\n        uint256 depositTime,\r\n        uint256 interest\r\n    );\r\n    event Borrow(\r\n        address indexed user,\r\n        uint256 collateralEtherAmount,\r\n        uint256 borrowedTokenAmount\r\n    );\r\n    event PayOff(address indexed user, uint256 fee);\r\n\r\n    //pass as constructor argument deployed Token contract\r\n    constructor(Token _token) public {\r\n        //assign token deployed contract to variable\r\n        token = _token;\r\n    }\r\n\r\n    function deposit() public payable {\r\n        //check if msg.sender didn't already deposited funds\r\n        require(\r\n            isDeposited[msg.sender] == false,\r\n            \"Error, deposit already active\"\r\n        );\r\n        //check if msg.value is >= than 0.01 ETH\r\n        require(msg.value >= 1e16, \"Error, deposit must be >= 0.01 ETH\");\r\n\r\n        //increase msg.sender ether deposit balance\r\n        etherBalanceOf[msg.sender] = etherBalanceOf[msg.sender] + msg.value;\r\n        depositStart[msg.sender] = depositStart[msg.sender] + block.timestamp;\r\n\r\n        //start msg.sender hodling time\r\n        isDeposited[msg.sender] = true;\r\n\r\n        //set msg.sender deposit status to true\r\n        emit Deposit(msg.sender, msg.value, block.timestamp);\r\n        //emit Deposit event\r\n    }\r\n\r\n    function withdraw() public {\r\n        //check if msg.sender deposit status is true\r\n        require(isDeposited[msg.sender] == true, \"Error, no previous deposit\");\r\n        //assign msg.sender ether deposit balance to variable for event\r\n        uint256 userBalance = etherBalanceOf[msg.sender]; // for event\r\n        //check user's hold time\r\n        uint256 depositTime = block.timestamp - depositStart[msg.sender];\r\n        //31668017 - interest(10% APY) per second for min. deposit amount (0.01 ETH), cuz:\r\n        //1e15(10% of 0.01 ETH) / 31577600 (seconds in 365.25 days)\r\n\r\n        //(etherBalanceOf[msg.sender] / 1e16) - calc. how much higher interest will be (based on deposit), e.g.:\r\n        //for min. deposit (0.01 ETH), (etherBalanceOf[msg.sender] / 1e16) = 1 (the same, 31668017/s)\r\n        //for deposit 0.02 ETH, (etherBalanceOf[msg.sender] / 1e16) = 2 (doubled, (2*31668017)/s)\r\n        uint256 interestPerSecond = 31668017 *\r\n            (etherBalanceOf[msg.sender] / 1e16);\r\n        uint256 interest = interestPerSecond * depositTime;\r\n        msg.sender.transfer(etherBalanceOf[msg.sender]);\r\n        token.mint(msg.sender, interest); //interest to user\r\n\r\n        //reset deposit data\r\n        depositStart[msg.sender] = 0;\r\n        etherBalanceOf[msg.sender] = 0;\r\n        isDeposited[msg.sender] = false;\r\n        //emit event\r\n\r\n        emit Withdraw(msg.sender, userBalance, depositTime, interest);\r\n    }\r\n\r\n    function borrow() public payable {\r\n        //check if collateral is >= than 0.01 ETH\r\n        require(msg.value >= 1e16, \"Error, collateral must be >= 0.01ETH\");\r\n        //check if user doesn't have active loan\r\n        require(isBorrowed[msg.sender] == false, \"Error, loan aleady taken\");\r\n        //add msg.value to ether collateral\r\n        collateralEther[msg.sender] = collateralEther[msg.sender] + msg.value;\r\n        //calc tokens amount to mint, 50% of msg.value\r\n        uint256 tokensToMint = collateralEther[msg.sender] / 2;\r\n        //mint&send tokens to user\r\n        token.mint(msg.sender, tokensToMint);\r\n        //activate borrower's loan status\r\n        isBorrowed[msg.sender];\r\n        //emit event\r\n        emit Borrow(msg.sender, collateralEther[msg.sender], tokensToMint);\r\n    }\r\n\r\n    function payOff() public {\r\n        //check if loan is active\r\n        require(isBorrowed[msg.sender] == true, \"Error, loan not active\");\r\n        require(\r\n            token.transferFrom(\r\n                msg.sender,\r\n                address(this),\r\n                collateralEther[msg.sender] / 2\r\n            ),\r\n            \"Error, can't receive tokens\"\r\n        ); //must approve dBank first\r\n        //transfer tokens from user back to the contract\r\n        //calc fee 10% fee\r\n        uint256 fee = collateralEther[msg.sender] / 10;\r\n        //send user's collateral minus fee\r\n        msg.sender.transfer(collateralEther[msg.sender] - fee);\r\n        //reset borrower's data\r\n        collateralEther[msg.sender] = 0;\r\n        isBorrowed[msg.sender] = false;\r\n\r\n        //emit event\r\n        emit PayOff(msg.sender, fee);\r\n    }\r\n}\r\n",
  "sourcePath": "C:/Users/Fdc_dev/Blockchain/bank/dbank/src/contracts/dBank.sol",
  "compiler": {
    "name": "solc",
    "version": "0.5.0+commit.1d4f565a.Emscripten.clang"
  },
  "schemaVersion": "3.0.1",
  "updatedAt": "2021-05-14T00:16:06.754Z",
  "devdoc": {
    "methods": {}
  },
  "userdoc": {
    "methods": {}
  }
}